:020000040800F2
:1000000008EF072441040008CD900008B5890008D6
:10001000C9900008410B000831CB00080000000027
:100020000000000000000000000000008103000844
:10003000AD11000800000000DD030008FDB000085D
:100040005B0400085B0400085B0400085B04000814
:100050005B0400085B0400085B0400085B04000804
:100060005B0400085B0400085B040008450B000803
:10007000550B0008650B00085B0400085B040008D2
:100080005B0400085B0400085B040008B51100086D
:10009000191200085B0400085B0400085B040008F8
:1000A0005B0400085B0400085B0400085B040008B4
:1000B0005B0400085B0400085B0400085B040008A4
:1000C0005B0400085B0400085B0400085B04000894
:1000D0005B0400085B0400085B04000821CB0008F7
:1000E0005B0400085B0400080000000015B3000872
:1000F0003DB3000825B300085B0400085B0400085A
:100100005B0400085B0400085B0400085B04000853
:100110005B0400085B040008F5B2000805B30008A2
:100120005B0400085B0400085B0400085B04000833
:100130005B0400085B0400085B0400085B04000823
:1001400000000000000000000000000000000000AF
:100150005B0400085B0400085B0400085B04000803
:100160005B0400085B0400085B0400085B040008F3
:100170005B0400085B0400085B040008000000004A
:100180005B0400085B0400085B04000829B9000850
:100190005B0400085B0400085B0400085B040008C3
:1001A0005B0400085B0400085B0400085B040008B3
:1001B0005B0400085B0400085B0400085B040008A3
:1001C0005B0400085B0400085B0400085B04000893
:1001D0005B0400085B0400085B0400085B04000883
:1001E0005B0400085B0400085B0400085B04000873
:1001F0005B0400085B0400085B0400085B04000863
:100200005B0400085B0400085B0400085B04000852
:100210005B0400085B0400085B0400085B04000842
:100220005B0400085B0400085B0400080000000099
:100230005B0400085B040008000000005B04000889
:100240005B0400085B0400085B0400085B04000812
:100250005B0400085B0400085B0400085B04000802
:100260005B0400085B0400085B0400085B040008F2
:100270005B0400085B0400085B0400080000000049
:100280005B0400085B0400085B0400080000000039
:10029000000000005B04000800F002F800F060F8C5
:1002A0000AA090E8000C82448344AAF10107DA45D1
:1002B00001D100F055F8AFF2090EBAE80F0013F0C3
:1002C000010F18BFFB1A43F0010318477C660100B9
:1002D0009C6601000A444FF0000C10F8013B13F03B
:1002E000070408BF10F8014B1D1108BF10F8015B8F
:1002F000641E05D010F8016B641E01F8016BF9D182
:1003000013F0080F1EBF10F8014BAD1C0C1B09D1D8
:100310006D1E58BF01F801CBFAD505E014F8016B4A
:1003200001F8016B6D1EF9D59142D6D370470000DC
:100330000023002400250026103A28BF78C1FBD8EE
:10034000520728BF30C148BF0B6070471FB515F07A
:10035000EBFC9DE8030000F025FA1FBD10B510BDB1
:1003600000F0AEFA1146FFF7F1FF10F03FF800F091
:10037000CCFA03B4FFF7F2FF03BC00F0FDFA000073
:100380002C4B19680868B0E8F04F80F30988BFF378
:100390006F8F4FF0000080F311887047000000005D
:1003A00008480068006880F308884FF0000080F378
:1003B000148862B661B6BFF34F8FBFF36F8F00DF53
:1003C00000BF00BF08ED00E0DFF80C00016841F459
:1003D00070010160704700BF88ED00E0EFF3098015
:1003E000BFF36F8F134B1A681EF0100F08BF20ED7C
:1003F000108A20E9F04F106009B44FF0500080F3EC
:100400001188BFF34F8FBFF36F8F14F00FFC4FF0C5
:10041000000080F3118809BC19680868B0E8F04F43
:100420001EF0100F08BFB0EC108A80F30988BFF3EC
:100430006F8F7047E8070024EFF3058070470000D6
:100440000948804709480047FEE7FEE7FEE7FEE768
:10045000FEE7FEE7FEE7FEE7FEE7FEE704480549A4
:10046000054A064B70470000F9B1000899020008E0
:1004700008DF032408EF072408CF072408CF072448
:1004800070B5064600F072F9056806F10B0020F021
:100490000704B4429CBF002070BD2B466A68BAB105
:1004A0001068A04210D304F1080188423CBF506894
:1004B000586007D35168101941601168091B016029
:1004C00058601460101D70BD13465268002AE7D1B1
:1004D0002146284600F052F90028DED170BD70B5E3
:1004E0000446051F00F042F90068002C14BF446860
:1004F00070BD002C18BFAC423CBF20466468F8D3E6
:1005000001680A18AA4218BF456003D12A68054647
:100510001144016028684119A1421CBF6C6070BD84
:100520006168696021680844286070BD53EA020C64
:1005300000F069802DE9F04B4FF00006002B1FBF43
:10054000B3FA83F503FA05F424FA05F65E4012BF08
:100550001643B2FA82F502FA05F4C5F120051EBF72
:1005600022FA05FC44EA0C04203556EA044C4FEA12
:10057000144418BF641C4FF000084FF0000990426B
:1005800071EB030C39D3002919BFB1FA81F701FAD5
:1005900007F6B0FA80F700FA07F6C7F120071EBF8A
:1005A00020FA07FC46EA0C062037B6FBF4FCA7EB62
:1005B0000507103F07F01F0BCBF120060CFA0BFBD1
:1005C0002CFA06F644BFB3460026202FA4BF5E4691
:1005D0004FF0000B5BEA060C08BF4FF0010B19EB64
:1005E0000B09ABFB027C48EB0608C01B06FB02CCE8
:1005F0000BFB03CC71EB0C01C1E70B4602464146F5
:100600004846BDE8F08B13B54FF000004FF00001F5
:10061000AFF30080BDE81C407047032A40F23080F1
:1006200010F0030C00F0158011F8013BBCF1020F33
:10063000624498BF11F801CB00F8013B38BF11F8B4
:10064000013BA2F1040298BF00F801CB38BF00F8CB
:10065000013B11F0030300F02580083AC0F0088048
:1006600051F8043B083A51F804CBA0E80810F5E72C
:10067000121D5CBF51F8043B40F8043BAFF300800F
:10068000D20724BF11F8013B11F801CB48BF11F884
:10069000012B24BF00F8013B00F801CB48BF00F854
:1006A000012B704710B5203AC0F00B80B1E818500C
:1006B000203AA0E81850B1E81850A0E81850BFF44C
:1006C000F5AF5FEA027C24BFB1E81850A0E81850EB
:1006D00044BF18C918C0BDE810405FEA827C24BF3F
:1006E00051F8043B40F8043B08BF7047D20728BFCD
:1006F00031F8023B48BF11F8012B28BF20F8023B1C
:1007000048BF00F8012B704702F0FF0343EA0322C1
:1007100042EA024200F089B84FF0000200B51346E9
:1007200094469646203922BFA0E80C50A0E80C5011
:10073000B1F12001BFF4F7AF090728BFA0E80C50C2
:1007400048BF0CC05DF804EB890028BF40F8042BBB
:1007500008BF704748BF20F8022B11F0804F18BF28
:1007600000F8012B7047704770477047004870478A
:10077000B0DE0324704770477047704738B50446B1
:100780000A4600206946AFF30080002808BF38BD44
:1007900002460099204600F071F8012038BD012082
:1007A00000F086B8F8B5AFF30080054600200C468F
:1007B000102000BF0646A819A0420DD9324669464E
:1007C0000020AFF30080070008BF00F071F8009828
:1007D000A04218BF0546C419FFF7C8FF05600746C9
:1007E000F01D20F007004619284600F00AF8B44230
:1007F00008BFF8BDA21B31463868BDE8F84000F0DC
:100800003DB800210160C0E9011070471020704719
:1008100010B500F02FF8006810BD10B5044600F0C8
:1008200029F8046010BD4FF000020429C0F01280C6
:1008300010F0030C3FF472AFCCF1040CBCF1020FCA
:1008400018BF00F8012BA8BF20F8022BA1EB0C0168
:10085000FFF764BF5FEAC17C24BF00F8012B00F8FA
:10086000012B48BF00F8012B70470000004870477B
:10087000A8DE032400487047A8DE0324034640682E
:100880008C46002818BF88423CBF03464068F8D316
:1008900018681844884207D00CF1030020F00700C4
:1008A000001D411A521A0146081D0A60FFF717BEC3
:1008B00010B500F039F8BDE8104000F02FB87047CF
:1008C0007546FFF7D3FFAE4605006946534620F054
:1008D0000700854618B020B5FFF7C0FDBDE82040F1
:1008E0004FF000064FF000074FF000084FF0000BEC
:1008F00021F00701AC46ACE8C009ACE8C009ACE89F
:10090000C009ACE8C0098D46704710B50446AFF386
:1009100000802046BDE81040FFF72BBD002801D025
:1009200000F02AB87047000010B5012805D000215A
:1009300003A000F027F8012010BD09A1F8E700008E
:1009400053494752544D454D3A204F7574206F66B8
:100950002068656170206D656D6F72790000000020
:100960003A2048656170206D656D6F727920636F04
:10097000727275707465640001491820ABBEFEE7A1
:100980002600020070B505460C460A2000E06D1CEA
:1009900000F011F835B128780028F8D102E0641C85
:1009A00000F009F814B120780028F8D1BDE87040B3
:1009B0000A20AFF3008008B569468DF800000320D7
:1009C000ABBE08BD9FED201AB5EE002A00EE012A4D
:1009D0009FED1E1ABDEEC20AB5EEC02AF1EE10FA66
:1009E00010EE100AB8BF013800EE100A0020B8EE71
:1009F000C00A32EE400A9FED162A20EE010ABCEE34
:100A0000C01A11EE101A30EE021AB0EB512F18BFB7
:100A1000002102EE101A46F2441000FE010AC0F650
:100A20000100B8EE422A00EB810090ED011A30EE91
:100A3000420AB7EE002A32EE402A20EE010A90ED7B
:100A4000001A02EE010A704783F9223E00000044BA
:100A5000000000C49FED1F1A20EE010A9FED1F2A1F
:100A6000BDEEC01AB5EEC00AF1EE10FA11EE100A92
:100A7000B8BF013801EE100A0020B8EEC11A30EEFE
:100A8000410A9FED151A20EE010ABCEEC01A11EEC4
:100A9000101A30EE021AB0EB512F18BF002102EEEF
:100AA000101A46F2441000FE010AC0F60100B8EE2A
:100AB000422A00EB810090ED011A30EE420AB7EEB7
:100AC000002A32EE402A20EE010A90ED001A02EED2
:100AD000010A704783F9223E00000044000000C470
:100AE00010B5044622460221012008F0F1FA9FEDDC
:100AF000050B84EDE20B04F56271204608F00CFB57
:100B0000204610BD000000000000000010B58EB0AF
:100B100004460A4880F82040132200F1100168467C
:100B2000FFF77BFD2322054905A8FFF776FD05A801
:100B30000FC810F059FA0EB010BD000010EA0224E0
:100B400000BFFEE710B5024801F0BAFD10BD00007D
:100B5000581B002410B5024801F0B2FD10BD000082
:100B60003019002410B5024801F0AAFD10BD0000A4
:100B7000D01B00240146374A0868904249D0354AC4
:100B800018320868904244D0324A303208689042A5
:100B90003FD0304A4832086890423AD02D4A6032FD
:100BA0000868904235D02B4A78320868904230D09D
:100BB000284A9032086890422BD0264AA83208680A
:100BC000904226D0244A0868904222D0224A183205
:100BD000086890421DD0204A30320868904218D0F0
:100BE0001D4A48320868904213D01B4A6032086898
:100BF00090420ED0184A78320868904209D0164ABE
:100C000090320868904204D0134AA8320868904293
:100C100001D1012000E00020B0B10A78103A182379
:100C2000B2FBF3F000F007020C4B9A5CCA65032894
:100C300005D90A686FF30902121D8A6503E00A6884
:100C40006FF309028A6503E0086820F0FF008865F9
:100C5000886D70471000024010040240F85E0108E1
:100C600010B502682B4C0368A34222D0294C1434DF
:100C70000368A3421DD0274C28340368A34218D030
:100C8000244C3C340368A34213D0224C50340368F4
:100C9000A3420ED01F4C64340368A34209D01D4CFC
:100CA00078340368A34204D01A4C8C340368A342FE
:100CB00001D1012300E000238BB10378083B142409
:100CC000B3FBF4F1144B03EB81030366124B803347
:100CD000436601F01F040123A340836618E00378F4
:100CE000103B1824B3FBF4F10C4B9A4204D80B4B85
:100CF000A83B9A4200D30831094B03EB81030366FA
:100D0000074B8033436601F01F040123A340836631
:100D100010BD00000854025800580258B8040240A0
:100D2000000802400179A9B3082940D8204B026885
:100D30009A4222D01E4B143302689A421DD01C4B9B
:100D4000283302689A4218D0194B3C3302689A4201
:100D500013D0174B503302689A420ED0144B6433B1
:100D600002689A4209D0124B783302689A4204D042
:100D70000F4B8C3302689A4201D1012200E000221D
:100D80004AB14A1E0B4B03EB8202C266094A40324B
:100D9000026708E00BE04A1E074B03EB8202C266C3
:100DA000054A403202674A1E012393404367704759
:100DB0000854025800590258000902400146002018
:100DC0008A69D2B98A6A32B1012A0DD0022A03D0C7
:100DD000032A10D10EE000BFCA6A02F08072B2F19D
:100DE000807F00D1012007E0CA6AB2F1C07F00D144
:100DF000012001E000E000BF36E08A69B2F5005F43
:100E00001BD18A6A32B1012A07D0022A03D0032AF1
:100E100011D10AE000BF01200EE0CA6A02F0807220
:100E2000B2F1807F00D1012006E0CA6AB2F1C07F32
:100E300000D1012000E000BF16E08A6A32B1012A29
:100E400005D0022A04D0032A0CD103E000BF00BF62
:100E5000012008E0CA6A02F08072B2F1807F00D1FE
:100E6000012000E000BF00BF70470000F0B5856DB5
:100E7000846D984F0668BE4270D0964F183706684A
:100E8000BE426BD0934F30370668BE4266D0914F5A
:100E900048370668BE4261D08E4F60370668BE4252
:100EA0005CD08C4F78370668BE4257D0894F903758
:100EB0000668BE4252D0874FA8370668BE424DD062
:100EC000854F0668BE4249D0834F18370668BE4238
:100ED00044D0814F30370668BE423FD07E4F4837FE
:100EE0000668BE423AD07C4F60370668BE4235D0B5
:100EF000794F78370668BE4230D0774F9037066812
:100F0000BE422BD0744FA8370668BE4226D0734F1E
:100F10000668BE4222D0714F14370668BE421DD00B
:100F20006E4F28370668BE4218D06C4F3C370668B3
:100F3000BE4213D0694F50370668BE420ED0674F8D
:100F400064370668BE4209D0644F78370668BE42EF
:100F500004D0624F8C370668BE4201D1012600E002
:100F600000263EB1D0E919767E60C66E16B1D0E992
:100F70001C767E60574F0668BE4249D0554F1837E1
:100F80000668BE4244D0534F30370668BE423FD059
:100F9000504F48370668BE423AD04E4F6037066819
:100FA000BE4235D04B4F78370668BE4230D0494FED
:100FB00090370668BE422BD0464FA8370668BE421F
:100FC00026D0454F0668BE4222D0434F18370668E8
:100FD000BE421DD0404F30370668BE4218D03E4F4B
:100FE00048370668BE4213D03B4F60370668BE42A2
:100FF0000ED0394F78370668BE4209D0364F903749
:101000000668BE4204D0344FA8370668BE4201D1FC
:10101000012600E00026DEB190F85C6006F01F07B4
:101020003F26BE40AE600668366826F48026076814
:101030003E60066873608668402E04D10668B26020
:101040000668F16044E00668B1600668F2603FE05F
:10105000224F0668BE4222D0204F14370668BE4297
:101060001DD01E4F28370668BE4218D01B4F3C3794
:101070000668BE4213D0194F50370668BE420ED0E4
:10108000164F64370668BE4209D0144F7837066899
:10109000BE4204D0114F8C370668BE4201D10126F2
:1010A00000E00026A6B190F85C6006F01F0701265C
:1010B000BE406660066873608668402E04D106688C
:1010C000B2600668F16003E00668B1600668F2602D
:1010D000F0BD000010000240100402400854025805
:1010E00010B52E4840782E490978884207D0002054
:1010F0002C490870294840782949087008E0294897
:101100000078FF2804DA27480078401C2549087039
:1011100000240AE02148005D3F2805D11F49601CDA
:10112000085C212800D102E0641C1D2CF2DB00BF0A
:101130000E2C11DC194904F10F00085C212800D0A5
:1011400010BD002005E02118144A515C164A1154C4
:10115000401C1028F7DB1CE0A4F10F000F49085CCD
:10116000212800D0ECE7002010E021181E2905DA24
:1011700021180A4A515C0C4A115406E0C4F11E01C0
:10118000411A064A515C084A1154401C1028ECDBF5
:1011900000BF054812F0BEFE00BFD1E7A811002431
:1011A0009407002489070024D0110024704772B6E8
:1011B00000BFFEE710B5024802F09CFE10BD000023
:1011C0008416002410B58AB00446002002900390D3
:1011D000022004900120059000200690079002A9AB
:1011E000204602F01AFD10B102200AB010BD002006
:1011F0000346022211460090204602F062FD08B12B
:101200000220F2E7204603F0C0FA00220121204626
:1012100002F066FC0020E8E710B5024802F06AFE22
:1012200010BD00002417002410B58AB00446002029
:1012300002900390022004900590002006900790F1
:1012400002A9204602F0E9FC10B102200AB010BD4C
:101250004FF08040029002200390049005900020FF
:101260000690079002A9204602F0D7FC08B10220A0
:10127000ECE700200346022211460090204602F0CF
:1012800020FD08B10220E1E724200649086020463D
:1012900003F07BFA00221021204602F021FC0020FE
:1012A000D4E7000080A4004010B501464A6B0868EE
:1012B000D0F884004FF6FC74A04340EA82000C682A
:1012C000C4F884000868D0F8840020F47F04088FF4
:1012D00044EA00400C68C4F88400886B0244086843
:1012E000D0F888004FF6FC74A04340EA82000C68F6
:1012F000C4F888000868D0F8880020F4FE04888FBD
:1013000044EA00400C68C4F88800C86B02EB400255
:101310000868D0F8A0004FF6FC74A04340EA8200B1
:101320000C68C4F8A0000868D0F8A00020F4FE04FF
:101330004020405A44EA00400C68C4F8A000D1E9BB
:10134000104004FB00220868D0F8B0004FF6FC748F
:10135000A04340EA82000C68C4F8B0000868D0F8E6
:10136000B00020F4FE04B1F8480044EA00400C68E4
:10137000C4F8B000D1E9124004FB00220868D0F89C
:10138000AC004FF6FC74A04340EA82000C68C4F83D
:10139000AC00D1E9144004FB00220868D0F8F0004A
:1013A0004FF6FC74A04340EA82000C68C4F8F000D9
:1013B0000868D0F8F00020F47C14B1F8580044EA32
:1013C00000400C68C4F8F000886D02EB4002086829
:1013D000D0F8C0004FF6FC74A04340EA82000C68CD
:1013E000C4F8C0000868D0F8C00020F47C14B1F83C
:1013F0005C0044EA00400C68C4F8C0000868D0F8FB
:10140000C00020F07C5491F8600044EA00600C6851
:10141000C4F8C0002A4C486B04EB8000C866CC6E50
:10142000886B04EB80040C670C6FC86B04EBC00482
:101430004C67D1E9100460434C6F04EB80048C6767
:10144000D1E9120460438C6F04EB8004CC67D1E9CE
:1014500014046043CC6F04EB800480204450445853
:10146000886D04EBC004842044508C6EC86D6043CA
:101470008424645804EB8004882044508C6E086EE9
:1014800060438824645804EB800490204450405802
:101490000C4CA04209D99831486840F020004860BF
:1014A000032001F89809012010BDCB6E02E0002056
:1014B00018601B1D902040589842F8D80020F3E790
:1014C00000AC0040FCD300402DE9F0410546144635
:1014D0001E46D1F804C0BCF1000F0AD1D1F810C0EB
:1014E000D1F808804CEA080CB1F800804CEA884337
:1014F0000BE0D1F810C04CF0804CD1F808804CEAD9
:10150000080CD1F800804CEA080391F82080D1F84B
:101510001CC04CEA086CD1F818804CEA080CD1F8D1
:1015200014804CEA080CD1F80C804CEA0807D5F876
:1015300068C00CFB06FCD5F8848008EB8C021360B5
:10154000121D1760121D002019E000F1030C14F8A1
:101550000CC04FEA0C6800F1020C14F80CC048EA09
:101560000C4800F1010C14F80CC048EA0C2C14F8DB
:1015700000804CEA080CC2F800C0121D001DDFF804
:101580001880D1F80CC008EB1C4C9CF800C08445B6
:10159000DBD8BDE8F0810000005F010870B50446AB
:1015A0000D4616460F492068884212D1314628461A
:1015B00000F0BEFB40F23320854212D1002005E04E
:1015C000315C012901D1084A1154401C0828F7DB7D
:1015D00007E006492068884203D13146284600F0DA
:1015E00077F870BD00A000402C00002400A400404B
:1015F000F0B589B007460C4615461E4624216846BC
:10160000FFF78AF8009500200190029030040390C3
:1016100000200490059006900790089022466946A5
:10162000384602F0B1FA10B1012009B0F0BD002037
:10163000FBE72DE9F0418AB007460C4615461E46E9
:10164000DDF84080242101A8FFF766F801954FF0EE
:1016500080400290CDF80C80049600200590069002
:10166000079008900990224601A9384602F08CFAAA
:1016700018B101200AB0BDE8F0810020FAE70000AF
:1016800001464A1E084B9A5C520300EE902AF8EE7F
:10169000E00A60EE800A9FED051AC0EE811AFDEEA9
:1016A000E10A10EE900A70478C5F01080000B44315
:1016B0002DE9F04104460D4616461F463B4632468C
:1016C00029462046FFF794FF0020BDE8F081000086
:1016D00070B506460D46012424E004F50170B042C1
:1016E0001FD1601E00EB4000104901EB400029684B
:1016F0000160A9888180E0B200F05CF8A8796428D4
:101700000EDB0B48005DFF2805DA0948005D401C30
:101710000749085504E001220821064803F060F952
:1017200070BD641C092CD8DB00BFF9E720C003247E
:10173000AC0A0024000C02580146481E014A52F827
:101740002000704750C0032410B5014600204A1EF7
:1017500002EB4202164B03EB420292780123B3EBF9
:10176000E21F13D14A1E02EB4202114B03EB42026D
:10177000D3784A1E02EB42020D4C04EB42029278EF
:1017800003EB0222A2F57F40FF380FE04A1E02EB76
:101790004202074B03EB4202D3784A1E02EB42029D
:1017A000034C04EB4202927803EB022010BD0000D0
:1017B00020C0032410B588B00146481E00EB40024B
:1017C000204B03EB4202527800EB40031D4C14F80F
:1017D000133002EB03224DF820205DF820201A4B35
:1017E00053F82030D21AB2F5805F09DB174A52F85D
:1017F0002020A2F5F852FF3A144B43F8202011E0C4
:101800005DF82020104B53F82030D21A12F5805F7B
:1018100008DC0E4A52F8202041F6FF731A440B4BA5
:1018200043F820205DF82020074B43F82020074A8A
:1018300052F820205DF820301A44054B43F8202050
:1018400008B010BD20C0032490DD032470DD032404
:1018500050C003242DE9F04106460D46284600EE0F
:10186000106AB8EEC00AFFF70BFF0746681EC4B245
:1018700004EB4400824901EB0010006804EB4401D2
:101880007F4A02EB01114860E8B2FFF755FF381AB2
:1018900004EB44017A4A02EB0111086004EB4400B6
:1018A000114601EB0010806804EB440102EB0111CA
:1018B0000968084404EB440102EB0111886004EB61
:1018C0004400114601EB0010806844F62061884214
:1018D00001DB084610E004EB4400694901EB00100D
:1018E00080686849884201DC084605E004EB440052
:1018F000634901EB0010806804EB4401604A02EB8D
:101900000111886004EB4400114601EB0010D0ED9A
:10191000030A04EB440001EB001090ED000AB8EE5E
:10192000C00A20EE800A04EB440001EB001080EDB9
:10193000080A04EB440001EB0010D0ED040A04EBAC
:10194000440001EB001090ED020AB8EEC00A20EE50
:10195000800A04EB440001EB001080ED090A04EB5F
:10196000440001EB0010006804EB440102EB01119C
:101970004968401A00EE100AB8EEC00A04EB4400B1
:10198000114601EB0010D0ED050A20EE200A04EB11
:10199000440001EB001080ED0A0A04EB440001EB67
:1019A000001090ED080A04EB440001EB0010D0EDAC
:1019B000090A30EE200A04EB440001EB0010D0EDE0
:1019C0000A0A30EE200A04EB440001EB001080ED1F
:1019D0000B0A04EB440001EB0010D0ED0B0A04EB02
:1019E000440001EB001090ED060AB8EEC00AF4EED8
:1019F000C00AF1EE10FA08DB04EB440001EB001022
:101A000090ED060AB8EEC00A23E004EB44001C493E
:101A100001EB0010D0ED0B0A04EB440001EB0010C9
:101A200090ED070AB8EEC00AF4EEC00AF1EE10FA23
:101A300008D804EB440001EB001090ED070AB8EE63
:101A4000C00A06E004EB44000D4901EB001090EDE4
:101A50000B0A04EB44000A4901EB001080ED0B0A6D
:101A600004EB4401064A02EB011191ED0B0ABDEEB5
:101A7000C00A10EE100A294600F006F8BDE8F08111
:101A8000340C0024E0B1FFFF70B506460D46681E19
:101A9000C4B204EB4400894901EB0010006804EB78
:101AA0004401864A02EB01114860E8B2FFF74CFEA0
:101AB000301A04EB4401814A02EB0111086004EB87
:101AC0004400114601EB0010806804EB440102EB76
:101AD00001110968084404EB440102EB011188601C
:101AE00004EB4400114601EB0010806842F21071D3
:101AF000884201DB084610E004EB44006F4901EB2B
:101B0000001080686E49884201DC084605E004EB5D
:101B100044006A4901EB0010806804EB4401674A05
:101B200002EB0111886004EB4400114601EB001048
:101B3000D0ED030A04EB440001EB001090ED000A25
:101B4000B8EEC00A20EE800A04EB440001EB00105E
:101B500080ED080A04EB440001EB0010D0ED040A0C
:101B600004EB440001EB001090ED020AB8EEC00A4D
:101B700020EE800A04EB440001EB001080ED090A1E
:101B800004EB440001EB0010006804EB440102EB9D
:101B900001114968401A00EE100AB8EEC00A04EBC1
:101BA0004400114601EB0010D0ED050A20EE200A9A
:101BB00004EB440001EB001080ED0A0A04EB440042
:101BC00001EB001090ED080A04EB440001EB00105B
:101BD000D0ED090A30EE200A04EB440001EB0010BE
:101BE000D0ED0A0A30EE200A04EB440001EB0010AD
:101BF00080ED0B0A04EB440001EB0010D0ED0B0A62
:101C000004EB440001EB001090ED060AB8EEC00AA8
:101C1000F4EEC00AF1EE10FA08DB04EB440001EB2D
:101C2000001090ED060AB8EEC00A23E004EB440071
:101C3000224901EB0010D0ED0B0A04EB440001EB4C
:101C4000001090ED070AB8EEC00AF4EEC00AF1EEFB
:101C500010FA08D804EB440001EB001090ED070ADD
:101C6000B8EEC00A06E004EB4400144901EB001092
:101C700090ED0B0A04EB4400104901EB001080EDDD
:101C80000B0A04EB440001EB001090ED0B0AB5EEDB
:101C9000C00AF1EE10FA00DB00E000BFE9B204EB8D
:101CA0004402064B03EB021292ED0B0ABDEEC00A92
:101CB00010EE100A00F006F870BD0000B40A00240F
:101CC000F0D8FFFF70B505460C46012C27DB082C29
:101CD00025DC002600BF1348854201DC054604E0F0
:101CE00047F23050854200DB0546042C02DC40F20E
:101CF000FF1603E040F2FF26201FC4B2C5F3072100
:101D00006000801E084A11546000401E1554B2B293
:101D1000082305490548FFF7CBFC002070BD0120D2
:101D2000FCE70000D08AFFFFB40D00242417002434
:101D300070B504460D4640F25130844202D0401C3A
:101D4000844271D140F2513084424ED1374890EDF7
:101D5000020A80ED050A2968816090ED020AD0ED43
:101D6000050A30EE600AD0ED080A30EE200A80ED58
:101D7000080A90ED020AB1EE400A80ED020A2C48F2
:101D8000007890BB19E0294890ED020AB5EEC00A30
:101D9000F1EE10FA08DD90ED020ADFED260A30EED2
:101DA000600A80ED020A08E0204890ED020ADFEDAB
:101DB000210A30EE200A80ED020A1C4890ED020A4A
:101DC000B7EEC00AB0EEC00B9FED1B1BB4EEC10B0B
:101DD000F1EE10FAD7DC90ED020AB1EE400A184895
:101DE00080ED000A01201249087040F2523084420E
:101DF00017D10E4800680D49C86012482968016073
:101E000000680A4908600846406808610E48696829
:101E1000016000680549486008464068486011F064
:101E2000E1FB00200149486270BD0000E8E902249E
:101E3000350A00240000B443000000000080664022
:101E40006C0900242D0A0024310A00242DE9F041F8
:101E5000044602F0D1FD804614B90120BDE8F081AE
:101E600094F83500022808D08020606500BF00206B
:101E700084F8340000BF0120F0E7FE492068884262
:101E800049D0FC4918312068884244D0F9493031A2
:101E9000206888423FD0F7494831206888423AD0CC
:101EA000F44960312068884235D0F24978312068A1
:101EB000884230D0EF499031206888422BD0ED49DC
:101EC000A8312068884226D0EB492068884222D079
:101ED000E9491831206888421DD0E749303120682F
:101EE000884218D0E44948312068884213D0E2493A
:101EF0006031206888420ED0DF49783120688842FE
:101F000009D0DD4990312068884204D0DA49A831EF
:101F10002068884201D1012000E0002068B12068DB
:101F2000006820F01E00216808602068406920F0E9
:101F3000800021684861256806E02068006820F07C
:101F40000E00216808602568CA492068884270D060
:101F5000C8491831206888426BD0C64930312068A2
:101F6000884266D0C34948312068884261D0C1495F
:101F70006031206888425CD0BE4978312068884250
:101F800057D0BC4990312068884252D0B949A83115
:101F9000206888424DD0B8492068884249D0B64967
:101FA00018312068884244D0B349303120688842D3
:101FB0003FD0B1494831206888423AD0AE496031BB
:101FC0002068884235D0AC4978312068884230D0CA
:101FD000A9499031206888422BD0A749A8312068B0
:101FE000884226D0A5492068884222D0A3491431CE
:101FF000206888421DD0A14928312068884218D025
:102000009E493C312068884213D09C495031206859
:1020100088420ED0994964312068884209D0974996
:1020200078312068884204D094498C3120688842F5
:1020300001D1012000E0002028B1206E006820F4CA
:102040008070216E08608B492068884249D0894998
:1020500018312068884244D086493031206888424F
:102060003FD084494831206888423AD08149603164
:102070002068884235D07F4978312068884230D046
:102080007C499031206888422BD07A49A831206859
:10209000884226D078492068884222D07649183173
:1020A000206888421DD0744930312068884218D099
:1020B000714948312068884213D06F4960312068E7
:1020C00088420ED06C4978312068884209D06A492C
:1020D00090312068884204D06749A831206888423E
:1020E00006D12068006820F001002168086005E042
:1020F0002068006820F001002168086011E002F00B
:102100007BFCA0EB080005280BD92020606503208C
:1021100084F8350000BF002084F8340000BF01209F
:102120009CE6286800F001000028E8D151492068A9
:10213000884249D04F4918312068884244D04D49DF
:102140003031206888423FD04A494831206888426F
:102150003AD0484960312068884235D045497831C5
:102160002068884230D043499031206888422BD083
:102170004049A8312068884226D03F4920688842DB
:1021800022D03D491831206888421DD03A4930316B
:102190002068884218D0384948312068884213D0D6
:1021A00035496031206888420ED033497831206843
:1021B000884209D0304990312068884204D02E49A5
:1021C000A8312068884201D1012000E0002040B100
:1021D000A66D94F85C0000F01F013F208840B060BD
:1021E00007E0A76D94F85C0000F01F010120884013
:1021F000786020492068884276D01E4918312068CE
:10220000884271D01B493031206888426CD019490E
:1022100048312068884267D016496031206888427A
:1022200062D014497831206888425DD011499031DC
:102230002068884258D00F49A8312068884253D07E
:102240000D49206888424FD00B49183120688842D8
:102250004AD0094930312068884245D00649483182
:102260002068884240D004496031206888423BD0D1
:10227000014905E0100002401004024008540258D1
:102280007831206888422FD02549206888422BD099
:10229000234918312068884226D022492068884284
:1022A00022D020491431206888421DD01D49283190
:1022B0002068884218D01B493C312068884213D0DE
:1022C00018495031206888420ED016496431206880
:1022D000884209D0134978312068884204D01149D6
:1022E0008C312068884201D1012000E0002068B1D3
:1022F000D4E919104860E06E40B1E06E006820F447
:102300008070E16E0860D4E91C104860012084F8F8
:10231000350000BF002084F8340000BF00BF9DE5F9
:10232000A00402400854025870B504460CB90120BC
:1023300070BD94F83500022803D08020606501202C
:10234000F6E7DC492068884249D0DA49183120682C
:10235000884244D0D7493031206888423FD0D5499F
:102360004831206888423AD0D2496031206888429A
:1023700035D0D04978312068884230D0CD4990316D
:10238000206888422BD0CB49A8312068884226D0CB
:10239000C9492068884222D0C7491831206888423C
:1023A0001DD0C54930312068884218D0C249483113
:1023B0002068884213D0C0496031206888420ED01E
:1023C000BD4978312068884209D0BB4990312068E6
:1023D000884204D0B849A8312068884201D1012040
:1023E00000E00020F0B3042084F83500B1492068F3
:1023F00088424BD0AF4918312068884246D0AD4959
:1024000030312068884241D0AA494831206888424A
:102410003CD0A84960312068884237D0A54978313E
:102420002068884232D0A3499031206888422DD05C
:10243000A049A8312068884228D09F492068884256
:1024400024D09D491831206888421FD09A493031E4
:10245000206888421AD0984948312068884215D0AF
:10246000954900E020E06031206888420ED0924912
:1024700078312068884209D08F499031206888429D
:1024800004D08D49A8312068884206D120680068B0
:1024900020F001002168086009E12068006820F050
:1024A00001002168086002E12068006820F00E0049
:1024B000216808607F492068884249D07D491831E9
:1024C0002068884244D07B493031206888423FD020
:1024D00078494831206888423AD07649603120688E
:1024E000884235D0734978312068884230D07149AC
:1024F0009031206888422BD06E49A83120688842EC
:1025000026D06D492068884222D06B491831206856
:1025100088421DD0684930312068884218D0664909
:1025200048312068884213D063496031206888426E
:102530000ED0614978312068884209D05E499031D7
:102540002068884204D05C49A8312068884206D1BE
:102550002068006820F001002168086005E020681C
:10256000006820F001002168086052492068884214
:1025700070D050491831206888426BD04D493031B5
:102580002068884266D04B4948312068884261D033
:1025900048496031206888425CD0464978312068DB
:1025A000884257D0434990312068884252D04149EF
:1025B000A831206888424DD03F492068884249D0E0
:1025C0003D4918312068884244D03B493031206869
:1025D00088423FD038494831206888423AD036494D
:1025E00060312068884235D033497831206888428C
:1025F00030D031499031206888422BD02E49A83103
:102600002068884226D02D492068884222D02B4954
:102610001431206888421DD028492831206888421A
:1026200018D026493C312068884213D023495031C4
:10263000206888420ED0214964312068884209D040
:102640001E4978312068884204D01C498C312068AA
:10265000884201D1012000E00020D8B1206E00683E
:1026600020F48070216E0860A56D94F85C0000F085
:102670001F01012088406860D4E919104860E06EAD
:1026800040B1E06E006820F48070E16E0860D4E92B
:102690001C104860012084F8350000BF002084F839
:1026A000340000BF206D10B12046216D8847002006
:1026B0003EE6000010000240100402400854025898
:1026C0002DE9F84F044600200090FE4800684FF4C2
:1026D0001651B0FBF1FAA66DD4F858803768D8F8D7
:1026E0000090F9492068884249D0F749183120689C
:1026F000884244D0F4493031206888423FD0F249C2
:102700004831206888423AD0EF49603120688842D9
:1027100035D0ED4978312068884230D0EA4990318F
:10272000206888422BD0E849A8312068884226D00A
:10273000E6492068884222D0E4491831206888425E
:102740001DD0E24930312068884218D0DF49483135
:102750002068884213D0DD496031206888420ED05D
:10276000DA4978312068884209D0D8499031206808
:10277000884204D0D549A8312068884201D101207F
:1027800000E0002000287DD094F85C0000F01F01DC
:10279000082088403840002868D0CB49206888420B
:1027A00049D0C94918312068884244D0C6493031DF
:1027B000206888423FD0C4494831206888423AD0D6
:1027C000C14960312068884235D0BF4978312068DE
:1027D000884230D0BC499031206888422BD0BA4919
:1027E000A8312068884226D0B8492068884222D083
:1027F000B6491831206888421DD0B449303120686C
:10280000884218D0B14948312068884213D0AF4976
:102810006031206888420ED0AC4978312068884207
:1028200009D0AA4990312068884204D0A749A8312C
:102830002068884204D12068006800F0040003E0AA
:102840002068006800F0080080B12068006820F06F
:1028500004002168086094F85C0000F01F01082063
:102860008840B060606D40F00100606594F85C00E5
:1028700000F01F01012088403840E8B392492068E9
:10288000884200E0B7E24BD08F4918312068884277
:1028900046D08D4930312068884241D08A4948313C
:1028A000206888423CD0884960312068884237D00F
:1028B000854978312068884232D083499031206838
:1028C00088422DD08049A8312068884228D07F498D
:1028D0002068884224D07D491831206888421FD062
:1028E0007A493031206888421AD0784948312068C6
:1028F000884215D0754900E026E0603120688842A2
:102900000ED0724978312068884209D06F499031E1
:102910002068884204D06D49A8312068884204D1DB
:102920002068406900F0800002E020680068002014
:1029300050B194F85C0000F01F0101208840B060A5
:10294000606D40F00200606594F85C0000F01F01CB
:10295000042088403840E8B35B49206888424BD067
:10296000594918312068884246D05749303120688B
:10297000884241D054494831206888423CD052496D
:1029800060312068884237D04F49783120688842CA
:1029900032D04D499031206888422DD04A49A83123
:1029A0002068884228D049492068884224D0474975
:1029B0001831206888421FD044493031206888424D
:1029C0001AD0424948312068884215D03F496031C9
:1029D000206800E024E088420ED03C49783120682D
:1029E000884209D0394990312068884204D037495B
:1029F000A8312068884204D12068006800F00200F5
:102A000002E020680068002050B194F85C0000F0FB
:102A10001F0104208840B060606D40F004006065D4
:102A200094F85C0000F01F01102088403840E8B3A3
:102A300025492068884251D02349183120688842AE
:102A40004CD0214930312068884247D01E49483156
:102A50002068884242D01C496031206888423DD0BD
:102A6000194978312068884238D017499031206858
:102A7000884233D01449A831206888422ED01349A7
:102A8000206888422AD0114918312068884225D010
:102A90000E4930312068884220D00C4948312068E6
:102AA00088421BD009496031206800E04DE088422F
:102AB00014D006497831206888420FD003499031FC
:102AC000206805E0D40700241000024010040240F2
:102AD000884203D0FE492068884204D120680068FB
:102AE00000F0080003E02068006800F0040060B314
:102AF00094F85C0000F01F0110208840B06020684E
:102B0000006800F4802080B12068006800F4002094
:102B100028B9206CC8B12046216C884715E0A06C0C
:102B200098B12046A16C88470FE02068006800F447
:102B3000807028B92068006820F0080021680860CB
:102B4000206C10B12046216C884794F85C0000F09E
:102B50001F0120208840384000287DD0DD492068B2
:102B6000884249D0DB4918312068884244D0D9498D
:102B70003031206888423FD0D649483120688842A9
:102B80003AD0D44960312068884235D0D149783173
:102B90002068884230D0CF499031206888422BD0BD
:102BA000CC49A8312068884226D0C949A839206874
:102BB000884221D0C6499039206888421CD0C44937
:102BC00078392068884217D0C14960392068884226
:102BD00012D0BF494839206888420DD0BC493039ED
:102BE0002068884208D0BA4918392068884203D042
:102BF000B7492068884204D12068006800F01000BE
:102C000003E02068006800F0020028B394F85C003C
:102C100000F01F0120208840B06094F8350004289F
:102C20002DD12068006820F0160021680860206817
:102C3000406920F0800021684861206C08B9A06CD0
:102C400028B12068006820F008002168086094F826
:102C50005C0000F01F0100E03FE03F208840B060D2
:102C6000012084F8350000BF002084F8340000BF44
:102C7000206D10B12046216D8847BDE8F88F20688F
:102C8000006800F4802080B12068006800F4002013
:102C900028B9606C08B32046616C88471DE0E06B82
:102CA000D8B12046E16B884717E02068006800F43F
:102CB000807068B92068006820F010002168086002
:102CC000012084F8350000BF002084F8340000BFE4
:102CD000E06B10B12046E16B8847606D00287AD028
:102CE000606D00F00100E8B3042084F835007949F4
:102CF000206888424BD0774918312068884246D0F6
:102D0000744930312068884241D072494831206886
:102D100088423CD06F4960312068884237D06D4985
:102D200078312068884232D06A49903120688842E0
:102D30002DD06849A8312068884228D06449A83934
:102D40002068884223D062499039206888421ED08A
:102D50005F4978392068884219D05D496039206818
:102D6000884200E040E012D0594948392068884242
:102D70000DD0574930392068884208D05449183955
:102D80002068884203D052492068884206D12068D2
:102D9000006820F001002168086005E020680068F4
:102DA00020F001002168086000BF0098401C0090DE
:102DB000504500D905E02068006800F001000028B7
:102DC000F3D100BF2068006800F0010020B10320AB
:102DD00084F8350003E00DE0012084F8350000BFE1
:102DE000002084F8340000BFE06C002802D02046A8
:102DF000E16C8847D9E138492068884222D03649B9
:102E00001431206888421DD0334928312068884217
:102E100018D031493C312068884213D02E495031B6
:102E2000206888420ED02C4964312068884209D03D
:102E3000294978312068884204D027498C3120689C
:102E4000884201D1012000E000200028D2D0206873
:102E5000056894F85C0000F01F010420884000EA37
:102E60000900D8B305F00400C0B394F85C0000F08A
:102E70001F0104208840C8F8040005F4004080B118
:102E800005F4803030B9A06C0028B3D02046A16C86
:102E900088478AE1206C0028ACD02046216C884706
:102EA00083E105F02000E8BB0A492068884253D03E
:102EB00008491831206888424ED0064930312068D0
:102EC000884249D0034948312068884244D006E00E
:102ED000B804024010000240085402584FE0B449C0
:102EE00060312068884237D0B14978312068884203
:102EF00032D0AF499031206888422DD0AC49A831FA
:102F00002068884228D0AB492068884224D0A9494B
:102F10001831206888421FD0A64930312068884285
:102F20001AD000E025E0A34948312068884213D038
:102F3000A0496031206888420ED09E4978312068CF
:102F4000884209D09B4990312068884204D0994931
:102F5000A8312068884206D12068006820F0080067
:102F60002168086005E02068006820F004002168FE
:102F70000860206C10B32046216C884715E194F856
:102F80005C0000F01F010220884000EA0900E8B35D
:102F900005F00200D0B394F85C0000F01F0102209D
:102FA0008840C8F8040005F4004070B105F4803092
:102FB00028B9606C10B12046616C8847F5E0E06B81
:102FC000F0B32046E16B8847EFE005F02000C0BB7E
:102FD0007749206888424ED0754918312068884268
:102FE00049D0734930312068884244D07049483113
:102FF000206888423FD06E496031206888423AD0CC
:103000006B4978312068884235D000E04EE068494D
:103010009031206888422ED06549A83120688842C6
:1030200029D064492068884225D062491831206837
:10303000884220D05F493031206888421BD001E0AF
:103040006EE02DE05B4948312068884213D0594931
:103050006031206888420ED0564978312068884215
:1030600009D0544990312068884204D05149A83190
:103070002068884206D12068006820F0140021688A
:10308000086005E02068006820F00A0021680860F8
:10309000012084F8350000BF002084F8340000BF10
:1030A000E06BE8B32046E16B88477EE094F85C0073
:1030B00000F01F010820884000EA090080B305F0F5
:1030C000080068B33A49206888424BD03849183123
:1030D0002068884246D0364930312068884241D045
:1030E00033494831206888423CD0314960312068FA
:1030F000884237D02E4978312068884232D02C4916
:103100009031206888422DD02949A8312068884212
:1031100028D028492068884224D02649183100E068
:1031200043E0206888421DD022493031206888421F
:1031300018D0204948312068884213D01D49603199
:10314000206888420ED01B4978312068884209D017
:10315000184990312068884204D01649A831206867
:10316000884206D12068006820F01C0021680860B1
:1031700005E02068006820F00E002168086094F8DF
:103180005C0000F01F0101208840C8F80400012005
:10319000606584F8350000BF002084F8340000BF6B
:1031A000E06C10B12046E16C884700BF65E5000087
:1031B00010000240100402402DE9F041044601F0E5
:1031C0001BFC804614B90120BDE8F081FE4920684F
:1031D000884249D0FC4918312068884244D0FA49D5
:1031E0003031206888423FD0F74948312068884212
:1031F0003AD0F54960312068884235D0F2497831BB
:103200002068884230D0F0499031206888422BD025
:10321000ED49A8312068884226D0EC4920688842D0
:1032200022D0EA491831206888421DD0E749303160
:103230002068884218D0E54948312068884213D078
:10324000E2496031206888420ED0E0497831206838
:10325000884209D0DD4990312068884204D0DB499A
:10326000A8312068884201D1012000E00020002818
:1032700073D0606A00B100BF022084F8350000BF3F
:10328000002084F8340000BFCF492068884249D02C
:10329000CD4918312068884244D0CB49303120686C
:1032A00088423FD0C8494831206888423AD0C64950
:1032B00060312068884235D0C3497831206888421F
:1032C00030D0C1499031206888422BD0BE49A83106
:1032D0002068884226D0BD492068884222D0BB4958
:1032E0001831206888421DD0B849303120688842A2
:1032F00018D0B64948312068884213D0B3496031AC
:10330000206888420ED0B14978312068884209D0BF
:10331000AE4990312068884204D0AC49A831206879
:10332000884206D12068006820F00100216808600A
:1033300005E02068006820F00100216808600DE0C9
:1033400001F05AFBA0EB0800052807D92020606592
:10335000032084F83500012036E76AE02068006821
:1033600000F001000028EBD120680568984805406E
:10337000D4E9020108432169084361690843A1694E
:103380000843E1690843216A08430543606A042849
:1033900003D1D4E90B01084305438E4800686FF35D
:1033A0000F00B0F1005F1DD36068292802D3606868
:1033B0002E2811D960683F2802D3606842280BD9B3
:1033C0006068472802D36068482805D960684F289C
:1033D00004D36068522801D8012000E0002008B121
:1033E00045F48015206805602068456925F00705CB
:1033F000606A0543606A04280DD1A06A0543E06A4B
:1034000048B12046FDF7DAFC28B140206065012074
:1034100084F83500D8E6206845612046FDF7AAFB10
:10342000064694F85C0000F01F013F208840B06021
:103430009EE069492068884222D06749143120689B
:1034400088421DD0644928312068884218D06249DA
:103450003C312068884213D05F495031206888424F
:103460000ED05D4964312068884209D05A497831CC
:103470002068884204D058498C312068884201D1A4
:10348000012000E00020E0B353492068884222D0A8
:1034900051491431206888421DD04F492831206895
:1034A000884218D04C493C312068884213D04A49A0
:1034B0005031206888420ED04749643120688842E4
:1034C00009D0454978312068884204D042498C317E
:1034D0002068884201D1012000E0002000B100BF37
:1034E000022084F8350000BF002084F8340000BFBB
:1034F0002068056839480540A068402802D110219D
:1035000006E02EE0A068802801D1C10100E0002182
:10351000E06841EAD001206941EAD001606941EAEE
:10352000D001A06941EAD001E06941EAD001206AF6
:1035300041EA101005432068056027492068401AB9
:103540001421B0FBF1F08000E0652046FDF712FB8E
:10355000074694F85C0000F01F0101208840786065
:1035600006E040206065032084F8350001202BE64A
:103570001549206888427FD0134918312068884255
:103580007AD0114930312068884275D00E494831CF
:103590002068884270D00C496031206888426BD026
:1035A000094978312068884266D0074990312068FF
:1035B000884261D00449A831206888425CD0034920
:1035C0002068884258D00BE01000024010040240EE
:1035D0003F8010FE0010005C085402580F00FEFFF0
:1035E0003B4918312068884246D03949303120683B
:1035F000884241D036494831206888423CD034491D
:1036000060312068884237D031497831206888425B
:1036100032D02F499031206888422DD02C49A831D2
:103620002068884228D02B492068884224D0294924
:103630001431206888421FD02649283120688842EA
:103640001AD024493C312068884215D02149503194
:103650002068884210D01F496431206888420BD00E
:103660001C4978312068884206D01A498C3120687C
:10367000884200E000E001D1012000E0002000B31A
:103680002046FDF7EDFAA068802801D10020606097
:103690002079216E0860D4E919104860606860B133
:1036A0006068082809D82046FDF73CFB0020E16E41
:1036B0000860D4E91C10486003E00020E066206741
:1036C000606700206065012084F8350000207BE5FC
:1036D00010040240085402582DE9F04104460D46FA
:1036E00016461F464FF0000814B90120BDE8F081CE
:1036F00000BF94F83400012801D10220F6E7012030
:1037000084F8340000BF94F8350001287ED10220EF
:1037100084F8350000206065E4492068884249D07B
:10372000E24918312068884244D0E04930312068AD
:1037300088423FD0DD494831206888423AD0DB4991
:1037400060312068884235D0D84978312068884275
:1037500030D0D6499031206888422BD0D349A83147
:103760002068884226D0D2492068884222D0D04999
:103770001831206888421DD0CD49303120688842F8
:1037800018D0CB4948312068884213D0C8496031ED
:10379000206888420ED0C64978312068884209D016
:1037A000C34990312068884204D0C149A8312068BB
:1037B000884206D12068006820F001002168086076
:1037C00005E02068006820F00100216808603B46A1
:1037D000324629462046FDF749FBB4492068884215
:1037E0004BD0B24918312068884246D0AF493031B9
:1037F0002068884241D0AD494831206888423CD099
:10380000AA4960312068884237D000E042E1A749E8
:1038100078312068884230D0A449903120688842AD
:103820002BD0A249A8312068884226D0A049206820
:10383000884222D09E491831206888421DD09C4978
:1038400030312068884218D0994948312068884230
:1038500013D097496031206888420ED0944978315E
:103860002068884209D0924990312068884204D06B
:103870008F49A8312068884201D1012000E0002052
:1038800080B12068006820F01E0040F0160021681A
:103890000860206CB0B12068006840F00800216822
:1038A00008600FE02068006820F00E0040F00A0079
:1038B00021680860206C28B12068006840F004008E
:1038C0002168086079492068884270D077491831AA
:1038D000206888426BD0754930312068884266D0B4
:1038E000724948312068884261D07049603120684F
:1038F00088425CD06D4978312068884257D06B4946
:1039000090312068884252D06849A83120688842A6
:103910004DD067492068884249D0654918312068F0
:10392000884244D062493031206888423FD06049A3
:103930004831206888423AD05D4960312068884229
:1039400035D05B4978312068884230D05849903171
:10395000206888422BD05649A8312068884226D05A
:1039600054492068884222D0524914312068884244
:103970001DD0504928312068884218D04D493C312B
:103980002068884213D04B495031206888420ED0BD
:10399000484964312068884209D046497831206816
:1039A000884204D043498C312068884201D10120EB
:1039B00000E0002090B1206E006800F4803028B153
:1039C000206E006840F48070216E0860E06E28B1BF
:1039D000E06E006840F48070E16E08603349206852
:1039E000884249D0314918312068884244D02F4953
:1039F0003031206888423FD02C49483120688842C5
:103A00003AD02A4960312068884235D02749783138
:103A10002068884230D025499031206888422BD0D8
:103A20002249A8312068884226D02149206888424E
:103A300022D01F491831206888421DD01C493031DE
:103A40002068884218D01A4948312068884213D02B
:103A500017496031206888420ED0154978312068B6
:103A6000884209D0124990312068884204D0104918
:103A7000A8312068884206D12068006840F0010023
:103A80002168086010E02068006840F001002168AB
:103A9000086009E04FF40060606500BF002084F812
:103AA000340000BF4FF0010840461FE610000240FE
:103AB000100402400854025870B5044600F09CFF00
:103AC00006462546681C10B104480078054400BF2E
:103AD00000F092FF801BA842FAD370BDE4070024D7
:103AE00030B5034693F89840012C01D0022C3ED10A
:103AF0001868806D084030B91868C06D40F001004A
:103B00001D68E8650EE01868806D0840884206D19F
:103B10001868C06D40F002001D68E86502E00320EF
:103B20001D68E86501F4007030B11868D0F8E00055
:103B300010431D68C5F8E00001F4806030B11868DA
:103B4000D0F8E40010431D68C5F8E40000BF186811
:103B5000406D0B4D0D4028431D686865094800689D
:103B600040EA9170074D286000BF002030BDD3F8B7
:103B70009C0040F00200C3F89C000120F6E7000022
:103B8000FFFFCF3F14A800402DE9F04104460E4648
:103B90001746706800B900E000BF94F8980002284A
:103BA00032D12068D0F8C00000F07C5040B9D4F881
:103BB0009C0040F02000C4F89C000120BDE8F0818A
:103BC0002068D0F8C40000F4001038B1D4F89C008C
:103BD00040F40070C4F89C000120EFE72068D0F8A2
:103BE000C400C0F304452B463A4631462046FDF753
:103BF0006BFC0120A8402168C1F8D0000120A8403A
:103C0000C4F894000020D9E7D4F89C0040F00800E4
:103C1000C4F89C000120D1E77047F0B5024692F845
:103C20009860012E01D0022E43D1C868072800D128
:103C300000BF086818BBC868072800D000BFC86864
:103C400007280BD1088A4FF0605747EA0040CF6938
:103C500040EA07208F6940EA07040AE0087A8007F3
:103C60000F7B40EAC7600F8A40EA07404F6940EA8D
:103C70000704D76E486807EB80031C6017E0C8682C
:103C8000072800D000BF0F7B086940EA4774C86866
:103C9000072801D18D6903E00F7A486940EA8775EA
:103CA000176F486807EBC0031C601B1D1D600020D8
:103CB000F0BDD2F89C0040F00200C2F89C00012048
:103CC000F6E770B50446049D94F8980001280AD1DF
:103CD000080140EA820040EA430028432668C6F80B
:103CE0008000002070BDD4F89C0040F00400C4F8AF
:103CF0009C000120F6E77047704700002DE9F04373
:103D000004460D469C46002394F89880B8F1020FB3
:103D100074D1402D38D12068D0F8A00000F4FE0006
:103D200040B9D4F89C0040F02000C4F89C00012069
:103D3000BDE8F0832068D0F8A40000F07F0038B917
:103D4000D4F89C0040F48070C4F89C000120EFE798
:103D50002068D0F8A400C0F3006040B12068D0F81B
:103D6000A0004FF00049B9EBD07F00D101232068BB
:103D7000D0F8A400C0F305200344606C5843D4F885
:103D8000749009EB80014BE0412D38D12068D0F8C8
:103D9000B00000F4FE0038B9D4F89C0040F02000D8
:103DA000C4F89C000120C3E72068D0F8B40000F0FC
:103DB0007F0038B9D4F89C0040F48070C4F89C00AF
:103DC0000120B5E72068D0F8B400C0F3006040B12E
:103DD0002068D0F8B0004FF00049B9EBD07F00D197
:103DE00001232068D0F8B400C0F305200344E06C40
:103DF0005843D4F8789009EB800111E06EE0206D13
:103E0000A84207D8D4F89C0040F02000C4F89C00D9
:103E100001208DE7606D6843D4F87C9009EB800148
:103E2000086800F080405060506820B90868C0F30E
:103E30008A40106003E0086820F060401060086865
:103E400000F000509060086800F000401061091D0B
:103E5000088880B2D061086800F47020D0600868DB
:103E600000F480105061086800F400109061086848
:103E7000C0F3066010620868C00F5062091D0F464B
:103E8000002603E0B85D0CF80600761CDFF85C90B5
:103E9000D06809EB10400078B042F3D8402D03D130
:103EA0002068C0F8A83017E0412D03D12068C0F881
:103EB000B83011E0202D06D20120A840D4F800909F
:103EC000C9F8980008E005F01F09012000FA09F080
:103ED000D4F80090C9F89C00002029E7D4F89C0091
:103EE00040F00800C4F89C00012021E7005F0108B1
:103EF000704700002DE9F04F89B00446F54800688E
:103F00008507F448001D006805EA80752068006D8B
:103F100000F470462068406D06402068006D00F097
:103F20000F072068406D07402068006D00F0F00822
:103F30002068406D00EA08082068006D00F07159A3
:103F40002068406D00EA09092068006D00F0607A81
:103F50002068406D00EA0A0A2068406D00F4807015
:103F600080B12068006D00F4807058B100BF4FF43C
:103F70008070216808650020D649086000BF20468F
:103F8000FFF7B6FF2068406D00F48060D8B120686C
:103F9000006D00F48060B0B12068D0F8DC000790BC
:103FA0002068D0F8E40007990840079000BF4FF45C
:103FB0008060216808650020C649086000BF20466F
:103FC000079900F002FC65B100BFC3482840216892
:103FD0000865A80FBF49086000BF29462046FFF7C3
:103FE0001BFE66B100BFBC48304021680865B00FB9
:103FF000B849086000BF3146204600F0E8FB67B1D1
:1040000000BFB548384021680865B80FB14908605D
:1040100000BF3946204600F088FBB8F1000F0ED0F3
:1040200000BFAD4808EA0000216808654FEA9870B3
:10403000A849086000BF4146204600F08AFB20687E
:10404000406D00F4006080B12068006D00F40060F5
:1040500058B100BF4FF400602168086500209D49F9
:10406000086000BF204600F0B3FB2068406D00F4FC
:104070000070D8B12068006D00F40070B0B1206805
:10408000D0F8D80008902068D0F8E00008990840DF
:10409000089000BF4FF400702168086500208D492A
:1040A000086000BF2046089900F090FB2068406D32
:1040B00000F4002080B12068006D00F4002058B1A9
:1040C00000BF4FF400202168086500208149086086
:1040D00000BF204600F028FB2068406D00F48030CF
:1040E00080B12068006D00F4803058B100BF4FF4FB
:1040F00080302168086500207649086000BF2046AE
:1041000000F062FB2068406D00F4802080B12068E0
:10411000006D00F4802058B100BF4FF4802021686A
:10412000086500206B49086000BF204600F04BFB8B
:104130002068406D00F4003098B12068006D00F4F4
:10414000003070B100BF4FF40030216808650020D6
:104150006049086000BFD4F89C0040F08000C4F8BB
:104160009C00BAF1000F0ED000BF5B480AEA0000C5
:10417000216808654FEA9A705649086000BF5146A9
:104180002046FFF7B9FDB9F1000F10D000BF52482B
:1041900009EA0000216808654FEA99704D490860F6
:1041A00000BFD4F89C0040EA0900C4F89C004B49C9
:1041B000206888427DD16068806800F00300002894
:1041C0007ED06068006A00F00F0B6068406A00EA09
:1041D0000B0B6068006A00F0300006906068406A6F
:1041E0000699084006906068006A00F4C070059067
:1041F0006068406A0599084005906068006A00F4AC
:10420000FC4004906068406A04990840049060682B
:10421000006A00F4F02003906068406A0399084047
:104220000390BBF1000F06D06068C0F820B059467B
:10423000204600F0C5FA069830B106986168086219
:104240002046069900F0BEFA6068406A00F040001F
:10425000A8B16068006A00F0400080B16068C06B7F
:10426000000C02906068C06B00F03F00019040209D
:10427000616808622046DDE9012100F0A2FA059894
:1042800030B10598616808622046059900F097FAF8
:10429000049840B1049861680862D4F89C000499BD
:1042A0000843C4F89C00039818B103986168086239
:1042B00000E005E0D4F89C0003990843C4F89C0092
:1042C000D4F89C0010B12046FFF715FD09B0BDE8F9
:1042D000F08F000010A80040FFFFCF3F00A000407B
:1042E00070B594B004464C22B34901A8FCF7DAF942
:1042F00014B9012014B070BDB0492068884203D1C0
:10430000206800F580706060A068B0F5407F00D143
:1043100000BF206C00B100BFA06C00B100BF206DD9
:1043200000B100BF206E00B100BFD4E917100844EF
:1043300000B100BF94F8980028B9002084F89900D3
:10434000204600F03DF92068806920F010002168C7
:10435000886100F051FB05460EE000F04DFB401B6C
:104360000A2809D99834606840F001006060032091
:1043700004F898090120BDE72068806900F0080072
:104380000828EAD02068806940F00100216888612F
:1043900000F032FB05460EE000F02EFB401B0A2821
:1043A00009D99834606840F001006060032004F887
:1043B000980901209EE72068806900F0010000282C
:1043C000EAD02068806940F0020021688861207C82
:1043D000012806D12068806920F0400021688861AA
:1043E00005E02068806940F0400021688861607CB9
:1043F000012806D12068806940F4804021688861E6
:1044000005E02068806920F4804021688861A07CF4
:10441000012806D12068806920F4805021688861D5
:1044200005E02068806940F4805021688861206838
:10443000806920F44070A168084321688861206881
:10444000806920F0A400216888612068006920F05C
:10445000100021680861E068012806D120688069A1
:1044600040F004002168886120E0E068F0B1E06875
:10447000022815D02068806940F08000216888619A
:104480002068006940F0100021680861E068032896
:104490000CD12068806940F020002168886105E027
:1044A0002068806940F0200021688861207E401EDD
:1044B0004106E069401E41EA0020216A491E084386
:1044C000A18A491E40EA01402168C861A068B0F590
:1044D000407F0FD1A06A401EE16A491E40EA0121D7
:1044E000206B401E41EA0011A08C401E41EA0040B2
:1044F0002168C860206E38B12068D0F8C000616EB5
:1045000008432168C1F8C000D4E91710084460B11D
:104510002068D0F8C80020F0070001AAA16E52F868
:10452000211008432168C1F8C800206C60B12068E0
:10453000D0F8BC0020F0070001AA616C52F82110ED
:1045400008432168C1F8BC00A06C68B12068D0F8AD
:10455000BC0020F0700101AAE06C52F8200041EA92
:1045600000102168C1F8BC00206D68B12068D0F847
:10457000BC0020F4E06101AA606D52F8200041EA1D
:1045800000202168C1F8BC000C492068884205D190
:104590006068806820F0030061688860002044F84B
:1045A000940FA06001202071943C2046FCF77CFE13
:1045B000064630469EE60000105F010800A000405D
:1045C00010B5B6B00446142131A8FCF7A5F8BC21FB
:1045D00002A8FCF7A1F84E492068884249D14FF45F
:1045E0000040029040031D9002A800F087FD08B132
:1045F000FCF7DDFD47480068401C46490860084656
:10460000006801280DD100BF4348006840F4807065
:10461000414908600846006800F48070019000BFBE
:1046200000BF00BF3C480C38006840F001003A4928
:104630000C3908600846006800F00100019000BFD6
:1046400000BF4FF4C05031900220329001203390CF
:10465000032034900920359031A9304800F0BAF891
:1046600000220521132000F085FA132000F06EFAD5
:104670004CE02B492068884248D14FF4004002901A
:1046800040031D9002A800F039FD08B1FCF78FFD32
:1046900020480068401C1F4908600846006801283F
:1046A0000DD100BF1C48006840F480701A490860B2
:1046B0000846006800F48070019000BF00BF00BF92
:1046C00015480C38006840F0020013490C390860A6
:1046D0000846006800F00200019000BF00BF4FF4E0
:1046E00040503190022032900120339003203490CA
:1046F0000920359031A90B4800F06CF80022052103
:10470000142000F037FA142000F020FA36B010BD63
:1047100000A00040D0070024EC44025800000258DA
:1047200000A4004000040258704730B58DB0044624
:104730000D4600200B900C900BAB01AA40212046A7
:10474000FFF7DCFA0BAA20460199FCF727FF0DB012
:1047500030BD30B59BB004460D4640210BA8FBF799
:10476000DBFF0BAB01AA41212046FFF7C7FA0298F5
:1047700028B90BAA20460199FCF710FF03E00BA90A
:10478000019808F0D7F91BB030BD014691F89800A8
:1047900001280CD1022081F898000868806920F077
:1047A00001000A6890610020C1F89C007047D1F8B0
:1047B0009C0040F00400C1F89C000120F6E770471F
:1047C0007047704770477047704770477047704731
:1047D00070470000F8B502460B4600216F4DD7E048
:1047E00001278F401E6806EA0704002C72D01E794C
:1047F00006F00306012E04D01E7906F00306022EF1
:1048000013D190684F000326BE40B0434F00DE68CE
:10481000BE4030439060506801268E40B0431E7900
:10482000C6F300168E40304350601E7906F0030632
:10483000032E09D0D0684F000326BE40B0434F007E
:104840009E68BE403043D0601E7906F00306022EFB
:1048500013D1CF0802F1200656F827004E07F70EB5
:104860000F26BE40B0434F07FF0E1E69BE403043C7
:10487000CF0802F1200646F8270010684F000326F3
:10488000BE40B0431E7906F003064F00BE403043E1
:1048900010605E6806F44036002E78D000BF404EAF
:1048A000366846F002063E4F3E603E46366806F0E9
:1048B0000206009600BF00BF3A4E8F0856F8270048
:1048C0008E07370F0F26BE40B043374EB24202D19B
:1048D00000262EE05BE0354EB24201D1012628E0F1
:1048E000334EB24201D1022623E0324EB24201D110
:1048F00003261EE0304EB24201D1042619E02F4EAD
:10490000B24201D1052614E02D4EB24201D1062655
:104910000FE02C4EB24201D107260AE02A4EB242E5
:1049200001D1082605E0294EB24201D1092600E056
:104930000A268F073F0FBE4030431A4E8F0846F8B5
:1049400027004FF0B0463068A0435E6806F480163A
:1049500006B120434FF0B04630607068A0435E68F7
:1049600006F4001606B120434FF0B0467060686848
:10497000A0435E6806F4003606B1204368602868EC
:10498000A0435E6806F4803606B120432860491CC7
:104990001E68CE40002E7FF423AFF8BD8000005883
:1049A000F444025808040058000002580004025859
:1049B00000080258000C0258001002580014025857
:1049C00000180258001C0258002002580024025807
:1049D000024613690B400BB1012000E00020704734
:1049E0000AB1816101E00B048361704701480068EE
:1049F000000C70470010005C014800687047000020
:104A0000DC07002403480068034909780844014989
:104A100008607047DC070024E407002410B5032079
:104A200000F0E6F801F02CFB10490968C1F30321FE
:104A30000F4A515C01F01F0120FA01F40B48006895
:104A400000F00F001146085C00F01F0024FA00F08F
:104A50000849086008480460052000F00FF808B114
:104A6000012010BD00F05AF80020FAE7184402585F
:104A7000E85E0108D8070024D4070024F0B58BB005
:104A80000446102C0AD2002221462D2000F072F894
:104A90002D2000F05BF81C48046002E001200BB000
:104AA000F0BD00BF1948006840F4807017490860E5
:104AB0000846006800F48070019000BF00BF02A9A2
:104AC00003A801F05DFA089E1EB901F0B5FA05468B
:104AD00002E001F0B1FA45000D48B5FBF0F0471EC9
:104AE0000C480D49086040F2E7310B48C16047604F
:104AF00000210161816002F0BBFB18B9064802F099
:104B000083FCCCE70120CAE7E0070024E844025810
:104B100040420F0000200040481C002408B500BFA0
:104B20000948006840F0020007490860084600682C
:104B300000F00200009000BF00BF00220F21901E75
:104B400000F018F808BD0000F44402580146084679
:104B500000280DDB00BF00BF00F01F0301229A40B8
:104B600043099B0003F1E023C3F8002100BF00BF0D
:104B700000BF70472DE9F05F80460D46164608F0ED
:104B8000E5F8074639462A46334601F00700C0F1EA
:104B9000070ABAF1040F02D94FF0040A01E0C0F18C
:104BA000070AD14600F1040ABAF1070F02D24FF00A
:104BB000000A01E0A0F1030AD4464FF0010A0AFA04
:104BC00009FAAAF1010A0AEA020A0AFA0CFA4FF0F3
:104BD000010B0BFA0CFBABF1010B0BEA030B4AEADE
:104BE0000B042146404608F0B9F8BDE8F09F0000EC
:104BF00000BF00F00702064B19684FF6FF0319408B
:104C0000044B0B4343EA0221014B196000BF70477C
:104C10000CED00E00000FA0570B504461548006888
:104C2000C0F3800048B91348006800F00700A042B4
:104C300001D0012070BD0020FCE70E48006820F084
:104C4000070020430B490860FFF7D6FE054607E042
:104C5000FFF7D2FE401BB0F57A7F01D90120E9E7CA
:104C6000044808380068C0F340300028F0D0002025
:104C7000E0E700000C48025810B501F0B7F905490B
:104C80000968C1F30211044A515C01F01F01C840D8
:104C900010BD000020440258E85E010870B50146CE
:104CA000844D2D6805F00303824D2D68C5F3053052
:104CB000804D2D1D2D68C5F300147E4D14352D68D3
:104CC000C5F3CC0515FB04F501EE105AB8EE411AF8
:104CD000F0EE410A00286FD023B1012B4ED0022BF9
:104CE0006BD16BE0734D283D2D68C5F340153DB386
:104CF000704D283D2D68C5F3C1066F4D25FA06F2AB
:104D000001EE102AF8EE411A01EE100AB8EE411A2F
:104D100081EE812A9FED691AC0EE811A654D10352A
:104D20002D68C5F3080501EE105AB8EE411A31EEB0
:104D3000811AF7EE001A31EE211A22EE010A1CE068
:104D400001EE100AB8EE411ADFED5D1A81EE812AFC
:104D50009FED5A1AC0EE811A564D10352D68C5F3D5
:104D6000080501EE105AB8EE411A31EE811AF7EE3D
:104D7000001A31EE211A22EE010A5BE001EE100A60
:104D8000B8EE411ADFED4F1A81EE812A9FED4B1AE2
:104D9000C0EE811A474D10352D68C5F3080501EEA8
:104DA000105AB8EE411A31EE811AF7EE001A31EEC0
:104DB000211A22EE010A3DE077E01DE001EE100A23
:104DC000B8EE411A9FED402AC2EE011A9FED3B1A40
:104DD00080EE812A374D10352D68C5F3080501EEA8
:104DE000105AB8EE411A32EE011AB7EE002A31EE2F
:104DF000021A21EE810A1DE001EE100AB8EE411AF6
:104E0000DFED301A81EE812A9FED2C1AC0EE811A57
:104E1000284D10352D68C5F3080501EE105AB8EE7F
:104E2000411A31EE811AF7EE001A31EE211A22EE04
:104E3000010A00BF00BF1F4D10352D68C5F3462580
:104E400001EE105AB8EE411AF7EE001A31EE211AAF
:104E5000C0EE011ABCEEE11A81ED001A154D1035B5
:104E60002D68C5F3064501EE105AB8EE411AF7EE6B
:104E7000001A31EE211AC0EE011ABCEEE11A81EDE2
:104E8000011A0C4D10352D68C5F3066501EE105A58
:104E9000B8EE411AF7EE001A31EE211AC0EE011AEF
:104EA000BCEEE11A81ED021A03E000250D604D60B1
:104EB0008D6070BD284402580090D0030000004669
:104EC0000024744C0024744A20BCBE4B70B50146CB
:104ED000844D2D6805F00303824D2D68C5F3055000
:104EE000804D2D1D2D68C5F300247E4D1C352D6889
:104EF000C5F3CC0515FB04F501EE105AB8EE411AC6
:104F0000F0EE410A00286FD023B1012B4ED0022BC6
:104F10006BD16BE0734D283D2D68C5F340153DB353
:104F2000704D283D2D68C5F3C1066F4D25FA06F278
:104F300001EE102AF8EE411A01EE100AB8EE411AFD
:104F400081EE812A9FED691AC0EE811A654D1835F0
:104F50002D68C5F3080501EE105AB8EE411A31EE7E
:104F6000811AF7EE001A31EE211A22EE010A1CE036
:104F700001EE100AB8EE411ADFED5D1A81EE812ACA
:104F80009FED5A1AC0EE811A564D18352D68C5F39B
:104F9000080501EE105AB8EE411A31EE811AF7EE0B
:104FA000001A31EE211A22EE010A5BE001EE100A2E
:104FB000B8EE411ADFED4F1A81EE812A9FED4B1AB0
:104FC000C0EE811A474D18352D68C5F3080501EE6E
:104FD000105AB8EE411A31EE811AF7EE001A31EE8E
:104FE000211A22EE010A3DE077E01DE001EE100AF1
:104FF000B8EE411A9FED402AC2EE011A9FED3B1A0E
:1050000080EE812A374D18352D68C5F3080501EE6D
:10501000105AB8EE411A32EE011AB7EE002A31EEFC
:10502000021A21EE810A1DE001EE100AB8EE411AC3
:10503000DFED301A81EE812A9FED2C1AC0EE811A25
:10504000284D18352D68C5F3080501EE105AB8EE45
:10505000411A31EE811AF7EE001A31EE211A22EED2
:10506000010A00BF00BF1F4D18352D68C5F3462546
:1050700001EE105AB8EE411AF7EE001A31EE211A7D
:10508000C0EE011ABCEEE11A81ED001A154D18357B
:105090002D68C5F3064501EE105AB8EE411AF7EE39
:1050A000001A31EE211AC0EE011ABCEEE11A81EDB0
:1050B000011A0C4D18352D68C5F3066501EE105A1E
:1050C000B8EE411AF7EE001A31EE211AC0EE011ABD
:1050D000BCEEE11A81ED021A03E000250D604D607F
:1050E0008D6070BD284402580090D0030000004637
:1050F0000024744C0024744A20BCBE4B2DE9F041BE
:1051000004460025A846206800F00060B0F1006F5A
:1051100030D1606E48B1B0F5801F0DD0B0F5001FE2
:1051200010D0B0F5401F15D113E0F948006840F4E5
:105130000030F74908600FE00221201D04F026FB33
:10514000054609E0022104F1240004F0D1FB0546E4
:1051500002E001E0012500BF00BF55B9EC48243052
:10516000006820F44010616E0843E949243108606A
:1051700000E0A846208800F48070B0F5807F2DD133
:10518000606D05281AD2DFE800F0030A1017180036
:10519000DF48006840F40030DD49086010E000217D
:1051A000201D04F0F3FA05460AE0002104F1240072
:1051B00004F09EFB054603E002E001E0012500BF8C
:1051C00000BF55B9D2482430006820F00700616D57
:1051D0000843CF492431086000E0A846208800F445
:1051E0000070B0F5007F33D1A06D802817D003DCAC
:1051F00040B140281CD10CE0C02817D0B0F5807F0A
:1052000016D114E0C248006840F40030C04908607C
:1052100010E00021201D04F0B9FA05460AE0002143
:1052200004F1240004F064FB054603E002E001E021
:10523000012500BF00BF55B9B5482430006820F4EF
:10524000E070A16D0843B2492431086000E0A8462F
:10525000208800F48060B0F5806F38D1D4F8A400C5
:10526000B0F5800F19D004DC50B1B0F5001F1DD18E
:105270000DE0B0F5C00F17D0B0F5000F16D114E057
:10528000A348006840F40030A149086010E0002104
:10529000201D04F07BFA05460AE0002104F12400F9
:1052A00004F026FB054603E002E001E0012500BF13
:1052B00000BF5DB996482C30006820F46000D4F837
:1052C000A410084392492C31086000E0A8462088C9
:1052D00000F40060B0F5006F38D1D4F8A800B0F148
:1052E000007F19D004DC50B1B0F1807F1DD10DE0FA
:1052F000B0F1407F17D0B0F1806F16D114E0844830
:10530000006840F400308249086010E00021201D50
:1053100004F03CFA05460AE0002104F1240004F000
:10532000E7FA054603E002E001E0012500BF00BF07
:105330005DB977482C30006820F0E060D4F8A81000
:10534000084373492C31086000E0A846206800F04B
:105350000070B0F1007F27D1A06CA0B1102804D05C
:10536000202809D030280FD10CE06948006840F4AB
:1053700000306749086009E00221201D04F006FAA8
:10538000054603E002E001E0012500BF00BF55B97A
:105390005F482030006820F03000A16C08435C4971
:1053A0002031086000E0A846208800F48050B0F565
:1053B000805F36D1E06DB0F5005F19D004DC50B1EC
:1053C000B0F5805F1DD10DE0B0F5405F17D0B0F5AE
:1053D000804F16D114E04E48006840F400304C492C
:1053E000086010E00021201D04F0D0F905460AE015
:1053F000002104F1240004F07BFA054603E002E0FA
:1054000001E0012500BF00BF55B9414824300068C4
:1054100020F4E040E16D08433D492431086000E09C
:10542000A846208800F40050B0F5005F34D1206E0B
:10543000B0F5403F1DD007DC68B1B0F5803F0BD020
:10544000B0F5003F18D10DE0B0F5802F12D0B0F5C7
:10545000A02F11D10FE011E00121201D04F096F9D9
:1054600005460BE0012104F1240004F041FA054651
:1054700004E003E002E001E0012500BF00BF55B9F0
:1054800023482430006820F4E020216E084320499E
:105490002431086000E0A846208800F48040B0F580
:1054A000804F38D1D4F8AC00B0F1405F1DD007DC9C
:1054B00068B1B0F1805F0BD0B0F1005F18D10DE0A2
:1054C000B0F1804F12D0B0F1A04F11D10FE011E038
:1054D0000121201D04F05AF905460BE0012104F1D9
:1054E000240004F005FA054604E003E002E001E0D0
:1054F000012500BF00BF6DB905482C30006820F0C1
:10550000E040D4F8AC10084301492C31086002E0B7
:105510002C440258A846208800F40040B0F5004F03
:1055200026D1E06E98B1B0F1805F03D0B0F1005F9A
:105530000ED106E0F948006840F40030F7490860F1
:1055400008E00121201D04F021F9054602E001E0F8
:10555000012500BF00BF55B9F0482430006820F095
:105560004050E16E0843ED492431086000E0A84650
:10557000206800F08070B0F1807F27D1606CA0B10E
:10558000012804D0022809D003280FD10CE0E348F9
:10559000006840F40030E149086009E00221201D64
:1055A00004F0F4F8054603E002E001E0012500BF45
:1055B00000BF55B9D9482030006820F00300616C65
:1055C0000843D6492031086000E0A846206800F46E
:1055D0008000B0F5800F7DD1D148006840F4807024
:1055E000CF490860FFF708FA064606E0FFF704FA1D
:1055F000801B642801D9032505E0C948006800F430
:1056000080700028F2D000BF85BBC44844300068D9
:1056100000F44070B4F8B01001F44071884213D027
:10562000BE484430006820F44077BC4844300068ED
:1056300040F48030B949443108600846006820F4DD
:105640008030086008460760D4F8B000B0F5807F6D
:1056500015D1FFF7D1F9064609E0FFF7CDF9801B18
:1056600041F28831884202D9032507E038E0AB488F
:1056700044300068C0F340000028EED000BF55BBA6
:1056800000BFB4F8B00000F44070B0F5407F0ED118
:10569000A2481C38006820F47C51A24AD4F8B0001B
:1056A000104041EA10109D491C39086007E09B48F2
:1056B0001C38006820F47C5098491C3908609748D1
:1056C00044300068B4F8B010C1F30B0108439349AB
:1056D000443101E005E001E0086002E0A84600E096
:1056E000A846207800F0010068B3A06F182819D0F0
:1056F00005DC48B1082808D0102816D10BE0202876
:1057000011D0282811D10FE011E00121201D04F053
:105710003DF805460BE0012104F1240004F0E8F80F
:10572000054604E003E002E001E0012500BF00BF00
:1057300055B97A482830006820F03800A16F084336
:1057400076492831086000E0A846207800F0020081
:10575000022828D1606F062815D2DFE800F0030484
:105760000A11121311E00121201D04F00FF8054663
:105770000BE0012104F1240004F0BAF8054604E02E
:1057800003E002E001E0012500BF00BF55B9634816
:105790002830006820F00700616F08435F49283116
:1057A000086000E0A846207800F0040004282AD110
:1057B000D4F89000062815D2DFE800F003040A119F
:1057C000121311E00121201D03F0E0FF05460BE05C
:1057D000012104F1240004F08BF8054604E003E005
:1057E00002E001E0012500BF00BF5DB94B482C304D
:1057F000006820F00700D4F89010084347492C3186
:10580000086000E0A846207800F02000202836D16B
:10581000D4F88C00B0F1405F1DD007DC68B1B0F166
:10582000805F0BD0B0F1005F18D10DE0B0F1804F78
:1058300012D0B0F1A04F11D10FE011E00021201DD6
:1058400003F0A4FF05460BE0022104F1240004F05C
:105850004FF8054604E003E002E001E0012500BF47
:1058600000BF5DB92D482830006820F0E040D4F832
:105870008C10084329492831086000E0A8462078A8
:1058800000F04000402836D1D4F89800B0F5406FC1
:105890001DD007DC68B1B0F5806F0BD0B0F5006F9C
:1058A00018D10DE0B0F5805F12D0B0F5A05F11D136
:1058B0000FE011E00021201D03F068FF05460BE01A
:1058C000022104F1240004F013F8054604E003E08B
:1058D00002E001E0012500BF00BF5DB90F482C3098
:1058E000006820F4E050D4F8981008430B492C319C
:1058F000086000E0A846207800F0800080283AD1B7
:10590000D4F89C00B0F5C04F23D00DDC98B1B0F5B1
:10591000005F11D0B0F5804F1ED113E02C44025827
:1059200000480258FFFCFF0FB0F5004F12D0B0F551
:10593000204F11D10FE011E00021201D03F026FFC0
:1059400005460BE0022104F1240003F0D1FF0546D7
:1059500004E003E002E001E0012500BF00BF4DB913
:10596000BE48006820F46040D4F89C100843BB494E
:10597000086000E0A846207800F00800082817D149
:10598000D4F88000B0F5805F07D1022104F1240033
:1059900003F0AEFF08B14FF00108B048001F0068E7
:1059A00020F44050D4F880100843AC49091F086027
:1059B000207800F01000102815D1D4F89400B0F52C
:1059C000807F07D1022104F1240003F091FF08B188
:1059D0004FF00108A148006820F44070D4F89410FA
:1059E00008439E490860206800F40020B0F5002FAD
:1059F00026D1D4F8A00030B1B0F5803F09D0B0F581
:105A0000003F0ED10CE00021201D03F0BFFE054633
:105A100009E0022104F1240003F06AFF054602E0D8
:105A200001E0012500BF00BF4DB98C48006820F49B
:105A30004030D4F8A01008438849086000E0A84628
:105A4000206800F48020B0F5802F2DD1D4F8840098
:105A5000B0F5801F06D0B0F5001F0CD0B0F5401F88
:105A600011D10FE07D482C38006840F400307B49AC
:105A70002C39086009E0012104F1240003F038FF0B
:105A8000054602E001E0012500BF00BF5DB9734893
:105A9000001F006820F44010D4F8841008436F49B8
:105AA000091F086000E0A846206800F48030B0F5C7
:105AB000803F24D1E06C18B1B0F5803F0FD108E0F1
:105AC00066482C38006840F4003064492C3908607E
:105AD00007E00221201D03F059FE054601E00125E3
